{
  "contractName": "Organ",
  "abi": [
    {
      "inputs": [],
      "payable": false,
      "stateMutability": "nonpayable",
      "type": "constructor"
    },
    {
      "anonymous": false,
      "inputs": [
        {
          "indexed": false,
          "name": "id",
          "type": "uint256"
        },
        {
          "indexed": false,
          "name": "date",
          "type": "uint256"
        },
        {
          "indexed": false,
          "name": "ipfsAddress",
          "type": "string"
        },
        {
          "indexed": false,
          "name": "author",
          "type": "string"
        }
      ],
      "name": "KidneyCreated",
      "type": "event"
    },
    {
      "constant": false,
      "inputs": [
        {
          "name": "_ipfsAddress",
          "type": "string"
        },
        {
          "name": "_author",
          "type": "string"
        }
      ],
      "name": "createKidney",
      "outputs": [],
      "payable": false,
      "stateMutability": "nonpayable",
      "type": "function"
    },
    {
      "constant": true,
      "inputs": [],
      "name": "getKidneyIds",
      "outputs": [
        {
          "name": "",
          "type": "uint256[]"
        }
      ],
      "payable": false,
      "stateMutability": "view",
      "type": "function"
    },
    {
      "constant": true,
      "inputs": [
        {
          "name": "id",
          "type": "uint256"
        }
      ],
      "name": "getKidney",
      "outputs": [
        {
          "name": "",
          "type": "uint256"
        },
        {
          "name": "",
          "type": "uint256"
        },
        {
          "name": "",
          "type": "string"
        },
        {
          "name": "",
          "type": "string"
        },
        {
          "name": "",
          "type": "bool"
        }
      ],
      "payable": false,
      "stateMutability": "view",
      "type": "function"
    },
    {
      "constant": false,
      "inputs": [
        {
          "name": "id",
          "type": "uint256"
        }
      ],
      "name": "toggleActive",
      "outputs": [],
      "payable": false,
      "stateMutability": "nonpayable",
      "type": "function"
    }
  ],
  "bytecode": "0x608060405234801561001057600080fd5b506000808190555061084c806100276000396000f300608060405260043610610062576000357c0100000000000000000000000000000000000000000000000000000000900463ffffffff168063cbd8e12f14610067578063e157099414610094578063f598120c14610143578063f9616c551461026e575b600080fd5b34801561007357600080fd5b50610092600480360381019080803590602001909291905050506102da565b005b3480156100a057600080fd5b50610141600480360381019080803590602001908201803590602001908080601f0160208091040260200160405190810160405280939291908181526020018383808284378201915050505050509192919290803590602001908201803590602001908080601f0160208091040260200160405190810160405280939291908181526020018383808284378201915050505050509192919290505050610332565b005b34801561014f57600080fd5b5061016e60048036038101908080359060200190929190505050610542565b60405180868152602001858152602001806020018060200184151515158152602001838103835286818151815260200191508051906020019080838360005b838110156101c85780820151818401526020810190506101ad565b50505050905090810190601f1680156101f55780820380516001836020036101000a031916815260200191505b50838103825285818151815260200191508051906020019080838360005b8381101561022e578082015181840152602081019050610213565b50505050905090810190601f16801561025b5780820380516001836020036101000a031916815260200191505b5097505050505050505060405180910390f35b34801561027a57600080fd5b50610283610723565b6040518080602001828103825283818151815260200191508051906020019060200280838360005b838110156102c65780820151818401526020810190506102ab565b505050509050019250505060405180910390f35b806000600260008381526020019081526020016000206000015414156102ff57600080fd5b60006002600084815260200190815260200160002060040160006101000a81548160ff0219169083151502179055505050565b60a0604051908101604052806000548152602001428152602001838152602001828152602001600115158152506002600080548152602001908152602001600020600082015181600001556020820151816001015560408201518160020190805190602001906103a392919061077b565b5060608201518160030190805190602001906103c092919061077b565b5060808201518160040160006101000a81548160ff0219169083151502179055509050506001600054908060018154018082558091505090600182039060005260206000200160009091929091909150555060008081548092919060010191905055507f44f25b51abdbc464d7b023e01419b6bf2bb5c6b6e3e134121944e289294e031a600054428484604051808581526020018481526020018060200180602001838103835285818151815260200191508051906020019080838360005b8381101561049a57808201518184015260208101905061047f565b50505050905090810190601f1680156104c75780820380516001836020036101000a031916815260200191505b50838103825284818151815260200191508051906020019080838360005b838110156105005780820151818401526020810190506104e5565b50505050905090810190601f16801561052d5780820380516001836020036101000a031916815260200191505b50965050505050505060405180910390a15050565b60008060608060008560006002600083815260200190815260200160002060000154141561056f57600080fd5b866002600089815260200190815260200160002060010154600260008a8152602001908152602001600020600201600260008b8152602001908152602001600020600301600260008c815260200190815260200160002060040160009054906101000a900460ff16828054600181600116156101000203166002900480601f01602080910402602001604051908101604052809291908181526020018280546001816001161561010002031660029004801561066c5780601f106106415761010080835404028352916020019161066c565b820191906000526020600020905b81548152906001019060200180831161064f57829003601f168201915b50505050509250818054600181600116156101000203166002900480601f0160208091040260200160405190810160405280929190818152602001828054600181600116156101000203166002900480156107085780601f106106dd57610100808354040283529160200191610708565b820191906000526020600020905b8154815290600101906020018083116106eb57829003601f168201915b50505050509150955095509550955095505091939590929450565b6060600180548060200260200160405190810160405280929190818152602001828054801561077157602002820191906000526020600020905b81548152602001906001019080831161075d575b5050505050905090565b828054600181600116156101000203166002900490600052602060002090601f016020900481019282601f106107bc57805160ff19168380011785556107ea565b828001600101855582156107ea579182015b828111156107e95782518255916020019190600101906107ce565b5b5090506107f791906107fb565b5090565b61081d91905b80821115610819576000816000905550600101610801565b5090565b905600a165627a7a7230582018ec0bfa2df117d9443b8a9c3f07283c2af241a3b5b65b64efd56b4ab2797fd70029",
  "source": "pragma solidity ^0.4.24;\n\ncontract Organ {\n    struct kidney {\n        uint id;\n        uint date;\n        string ipfsAddress;\n        string author;\n        bool active;\n    }\n\n    uint lastKidneyId;\n    uint[] kidneyIds;\n    mapping(uint => kidney) kidneys;\n\n    event KidneyCreated(\n        uint id,\n        uint date,\n        string ipfsAddress,\n        string author);\n\n    constructor() public {\n        lastKidneyId = 0;\n    }\n\n    function createKidney(string _ipfsAddress, string _author) public {\n        kidneys[lastKidneyId] = kidney(lastKidneyId, now, _ipfsAddress, _author,true);\n        kidneyIds.push(lastKidneyId);\n        lastKidneyId++;\n        emit KidneyCreated(lastKidneyId, now, _ipfsAddress, _author);\n    }\n\n    function getKidneyIds() public view returns (uint[]) {\n        return kidneyIds;\n    }\n\n    function getKidney(uint id) public kidneyExists(id) view  \n    returns (\n        uint,\n        uint,\n        string,\n        string,\n        bool\n    ) {\n        return (id,\n        kidneys[id].date,\n        kidneys[id].ipfsAddress,\n        kidneys[id].author,\n        kidneys[id].active\n        );\n    }\n    \n    function toggleActive(uint id) public kidneyExists(id)  {\n        kidneys[id].active = false;\n    }\n     \n    modifier kidneyExists(uint id) {\n        if (kidneys[id].id == 0) {\n            revert();\n        }\n        _;\n    }\n}\n",
  "sourcePath": "/home/arpit/Development/SiemensHack/contracts/Organ.sol",
  "compiler": {
    "name": "solc",
    "version": "0.4.24+commit.e67f0147.Emscripten.clang"
  },
  "schemaVersion": "2.0.1",
  "updatedAt": "2018-10-11T09:23:35.476Z"
}