{
  "contractName": "ToDo",
  "abi": [
    {
      "inputs": [],
      "payable": false,
      "stateMutability": "nonpayable",
      "type": "constructor"
    },
    {
      "anonymous": false,
      "inputs": [
        {
          "indexed": false,
          "name": "id",
          "type": "uint256"
        },
        {
          "indexed": false,
          "name": "date",
          "type": "uint256"
        },
        {
          "indexed": false,
          "name": "content",
          "type": "string"
        },
        {
          "indexed": false,
          "name": "author",
          "type": "string"
        },
        {
          "indexed": false,
          "name": "done",
          "type": "bool"
        }
      ],
      "name": "TaskCreated",
      "type": "event"
    },
    {
      "anonymous": false,
      "inputs": [
        {
          "indexed": false,
          "name": "id",
          "type": "uint256"
        },
        {
          "indexed": false,
          "name": "done",
          "type": "bool"
        },
        {
          "indexed": false,
          "name": "date",
          "type": "uint256"
        }
      ],
      "name": "TaskStatusToggled",
      "type": "event"
    },
    {
      "constant": false,
      "inputs": [
        {
          "name": "_content",
          "type": "string"
        },
        {
          "name": "_author",
          "type": "string"
        }
      ],
      "name": "createTask",
      "outputs": [],
      "payable": false,
      "stateMutability": "nonpayable",
      "type": "function"
    },
    {
      "constant": true,
      "inputs": [],
      "name": "getTaskIds",
      "outputs": [
        {
          "name": "",
          "type": "uint256[]"
        }
      ],
      "payable": false,
      "stateMutability": "view",
      "type": "function"
    },
    {
      "constant": true,
      "inputs": [
        {
          "name": "_id",
          "type": "uint256"
        }
      ],
      "name": "getTaskFixtures",
      "outputs": [
        {
          "name": "",
          "type": "uint256"
        },
        {
          "name": "",
          "type": "uint256"
        },
        {
          "name": "",
          "type": "string"
        },
        {
          "name": "",
          "type": "string"
        },
        {
          "name": "",
          "type": "bool"
        }
      ],
      "payable": false,
      "stateMutability": "view",
      "type": "function"
    },
    {
      "constant": true,
      "inputs": [
        {
          "name": "id",
          "type": "uint256"
        }
      ],
      "name": "getTask",
      "outputs": [
        {
          "name": "",
          "type": "uint256"
        },
        {
          "name": "",
          "type": "uint256"
        },
        {
          "name": "",
          "type": "string"
        },
        {
          "name": "",
          "type": "string"
        },
        {
          "name": "",
          "type": "bool"
        },
        {
          "name": "",
          "type": "uint256"
        }
      ],
      "payable": false,
      "stateMutability": "view",
      "type": "function"
    },
    {
      "constant": false,
      "inputs": [
        {
          "name": "id",
          "type": "uint256"
        }
      ],
      "name": "toggleDone",
      "outputs": [],
      "payable": false,
      "stateMutability": "nonpayable",
      "type": "function"
    }
  ],
  "bytecode": "0x608060405234801561001057600080fd5b5060008081905550610aef806100276000396000f30060806040526004361061006d576000357c0100000000000000000000000000000000000000000000000000000000900463ffffffff1680631d65e77e14610072578063292a4585146101a4578063bcd1480514610253578063d81ef739146102bf578063f885f0d9146102ec575b600080fd5b34801561007e57600080fd5b5061009d60048036038101908080359060200190929190505050610417565b60405180878152602001868152602001806020018060200185151515158152602001848152602001838103835287818151815260200191508051906020019080838360005b838110156100fd5780820151818401526020810190506100e2565b50505050905090810190601f16801561012a5780820380516001836020036101000a031916815260200191505b50838103825286818151815260200191508051906020019080838360005b83811015610163578082015181840152602081019050610148565b50505050905090810190601f1680156101905780820380516001836020036101000a031916815260200191505b509850505050505050505060405180910390f35b3480156101b057600080fd5b50610251600480360381019080803590602001908201803590602001908080601f0160208091040260200160405190810160405280939291908181526020018383808284378201915050505050509192919290803590602001908201803590602001908080601f0160208091040260200160405190810160405280939291908181526020018383808284378201915050505050509192919290505050610612565b005b34801561025f57600080fd5b50610268610840565b6040518080602001828103825283818151815260200191508051906020019060200280838360005b838110156102ab578082015181840152602081019050610290565b505050509050019250505060405180910390f35b3480156102cb57600080fd5b506102ea60048036038101908080359060200190929190505050610898565b005b3480156102f857600080fd5b506103176004803603810190808035906020019092919050505061098e565b60405180868152602001858152602001806020018060200184151515158152602001838103835286818151815260200191508051906020019080838360005b83811015610371578082015181840152602081019050610356565b50505050905090810190601f16801561039e5780820380516001836020036101000a031916815260200191505b50838103825285818151815260200191508051906020019080838360005b838110156103d75780820151818401526020810190506103bc565b50505050905090810190601f1680156104045780820380516001836020036101000a031916815260200191505b5097505050505050505060405180910390f35b6000806060806000808660006002600083815260200190815260200160002060000154141561044557600080fd5b87600260008a815260200190815260200160002060010154600260008b8152602001908152602001600020600201600260008c8152602001908152602001600020600301600260008d815260200190815260200160002060040160009054906101000a900460ff16600260008e815260200190815260200160002060050154838054600181600116156101000203166002900480601f0160208091040260200160405190810160405280929190818152602001828054600181600116156101000203166002900480156105595780601f1061052e57610100808354040283529160200191610559565b820191906000526020600020905b81548152906001019060200180831161053c57829003601f168201915b50505050509350828054600181600116156101000203166002900480601f0160208091040260200160405190810160405280929190818152602001828054600181600116156101000203166002900480156105f55780601f106105ca576101008083540402835291602001916105f5565b820191906000526020600020905b8154815290600101906020018083116105d857829003601f168201915b505050505092509650965096509650965096505091939550919395565b600080815480929190600101919050555060c0604051908101604052806000548152602001428152602001838152602001828152602001600015158152602001600081525060026000805481526020019081526020016000206000820151816000015560208201518160010155604082015181600201908051906020019061069b929190610a1e565b5060608201518160030190805190602001906106b8929190610a1e565b5060808201518160040160006101000a81548160ff02191690831515021790555060a08201518160050155905050600160005490806001815401808255809150509060018203906000526020600020016000909192909190915055507fb322bdd3250d405f7845d27fa1f0753f8f7e18e40886bc254b89005c3e9c0324600054428484600060405180868152602001858152602001806020018060200184151515158152602001838103835286818151815260200191508051906020019080838360005b8381101561079757808201518184015260208101905061077c565b50505050905090810190601f1680156107c45780820380516001836020036101000a031916815260200191505b50838103825285818151815260200191508051906020019080838360005b838110156107fd5780820151818401526020810190506107e2565b50505050905090810190601f16801561082a5780820380516001836020036101000a031916815260200191505b5097505050505050505060405180910390a15050565b6060600180548060200260200160405190810160405280929190818152602001828054801561088e57602002820191906000526020600020905b81548152602001906001019080831161087a575b5050505050905090565b6000816000600260008381526020019081526020016000206000015414156108bf57600080fd5b6002600084815260200190815260200160002091508160040160009054906101000a900460ff16158260040160006101000a81548160ff0219169083151502179055508160040160009054906101000a900460ff1661091f576000610921565b425b82600501819055507fcb1ceae718a6ae11d5daf00e292e318717e0acf2d326ed670df0e5ff67ba5000838360040160009054906101000a900460ff1684600501546040518084815260200183151515158152602001828152602001935050505060405180910390a1505050565b6000806060806000804260008292506040805190810160405280601d81526020017f437265617465206d6f7265207475746f7269616c7320666f7220455442000000815250906040805190810160405280600681526020017f4a756c69656e0000000000000000000000000000000000000000000000000000815250909450945094509450945091939590929450565b828054600181600116156101000203166002900490600052602060002090601f016020900481019282601f10610a5f57805160ff1916838001178555610a8d565b82800160010185558215610a8d579182015b82811115610a8c578251825591602001919060010190610a71565b5b509050610a9a9190610a9e565b5090565b610ac091905b80821115610abc576000816000905550600101610aa4565b5090565b905600a165627a7a72305820520de7acfe6675d5bfedf180cd3580021a4a0f1c7021fe250ce6e67465d4770b0029",
  "source": "pragma solidity ^0.4.24;\n\ncontract ToDo {\n  struct Task {\n    uint id;\n    uint date;\n    string content;\n    string author;\n    bool done;\n    uint dateComplete;\n  }\n\n  uint lastTaskId;\n  uint[] taskIds;\n  mapping(uint => Task) tasks;\n\n  event TaskCreated(\n    uint id,\n    uint date,\n    string content,\n    string author,\n    bool done);\n\n  event TaskStatusToggled(uint id, bool done, uint date);\n\n  constructor() public {\n    lastTaskId = 0;\n  }\n\n  function createTask(string _content, string _author) public {\n    lastTaskId++;\n    tasks[lastTaskId] = Task(lastTaskId, now, _content, _author, false, 0);\n    taskIds.push(lastTaskId);\n    emit TaskCreated(lastTaskId, now, _content, _author, false);\n  }\n\n  function getTaskIds() public constant returns(uint[]) {\n    return taskIds;\n  }\n\n  function getTaskFixtures(uint _id) public constant returns(\n      uint,\n      uint,\n      string,\n      string,\n      bool\n     ) {\n    return (0, now, \"Create more tutorials for ETB\", \"Julien\", false);\n  }\n\n  function getTask(uint id) taskExists(id) public constant\n    returns(\n      uint,\n      uint,\n      string,\n      string,\n      bool,\n      uint\n    ) {\n\n      return(\n        id,\n        tasks[id].date,\n        tasks[id].content,\n        tasks[id].author,\n        tasks[id].done,\n        tasks[id].dateComplete\n      );\n    }\n\n    function toggleDone(uint id) taskExists(id) public {\n      Task task = tasks[id];\n      task.done = !task.done;\n      task.dateComplete = task.done ? now : 0;\n      TaskStatusToggled(id, task.done, task.dateComplete);\n    }\n\n    modifier taskExists(uint id) {\n      if(tasks[id].id == 0) {\n        revert();\n      }\n      _;\n    }\n}\n",
  "sourcePath": "/home/arpit/Development/Organ_Tracker/contracts/todo.sol",
  "compiler": {
    "name": "solc",
    "version": "0.4.24+commit.e67f0147.Emscripten.clang"
  },
  "schemaVersion": "2.0.1",
  "updatedAt": "2018-10-09T05:31:42.942Z"
}